{
  "contractName": "CoinFlip",
  "abi": [
    {
      "inputs": [],
      "stateMutability": "payable",
      "type": "constructor",
      "payable": true
    },
    {
      "anonymous": false,
      "inputs": [
        {
          "indexed": true,
          "internalType": "address",
          "name": "player",
          "type": "address"
        },
        {
          "indexed": false,
          "internalType": "bool",
          "name": "victory",
          "type": "bool"
        },
        {
          "indexed": false,
          "internalType": "uint256",
          "name": "amount",
          "type": "uint256"
        }
      ],
      "name": "BetResult",
      "type": "event"
    },
    {
      "anonymous": false,
      "inputs": [
        {
          "indexed": false,
          "internalType": "address",
          "name": "user",
          "type": "address"
        },
        {
          "indexed": false,
          "internalType": "uint256",
          "name": "depositAmount",
          "type": "uint256"
        },
        {
          "indexed": false,
          "internalType": "uint256",
          "name": "newBalance",
          "type": "uint256"
        }
      ],
      "name": "DepositToContract",
      "type": "event"
    },
    {
      "anonymous": false,
      "inputs": [
        {
          "indexed": false,
          "internalType": "bytes32",
          "name": "requestId",
          "type": "bytes32"
        },
        {
          "indexed": false,
          "internalType": "uint256",
          "name": "randomNumber",
          "type": "uint256"
        }
      ],
      "name": "GeneratedRandomNumber",
      "type": "event"
    },
    {
      "anonymous": false,
      "inputs": [
        {
          "indexed": true,
          "internalType": "address",
          "name": "player",
          "type": "address"
        },
        {
          "indexed": false,
          "internalType": "bytes32",
          "name": "requestId",
          "type": "bytes32"
        }
      ],
      "name": "NewIdRequest",
      "type": "event"
    },
    {
      "anonymous": false,
      "inputs": [
        {
          "indexed": false,
          "internalType": "address",
          "name": "player",
          "type": "address"
        },
        {
          "indexed": false,
          "internalType": "uint256",
          "name": "amount",
          "type": "uint256"
        }
      ],
      "name": "Withdrawal",
      "type": "event"
    },
    {
      "inputs": [],
      "name": "owner",
      "outputs": [
        {
          "internalType": "address",
          "name": "",
          "type": "address"
        }
      ],
      "stateMutability": "view",
      "type": "function",
      "constant": true
    },
    {
      "inputs": [
        {
          "internalType": "address",
          "name": "",
          "type": "address"
        }
      ],
      "name": "playersByAddress",
      "outputs": [
        {
          "internalType": "uint256",
          "name": "balance",
          "type": "uint256"
        },
        {
          "internalType": "uint256",
          "name": "betAmount",
          "type": "uint256"
        },
        {
          "internalType": "uint256",
          "name": "betChoice",
          "type": "uint256"
        },
        {
          "internalType": "address",
          "name": "playerAddress",
          "type": "address"
        },
        {
          "internalType": "bool",
          "name": "betOngoing",
          "type": "bool"
        }
      ],
      "stateMutability": "view",
      "type": "function",
      "constant": true
    },
    {
      "inputs": [],
      "name": "randomResult",
      "outputs": [
        {
          "internalType": "uint256",
          "name": "",
          "type": "uint256"
        }
      ],
      "stateMutability": "view",
      "type": "function",
      "constant": true
    },
    {
      "inputs": [
        {
          "internalType": "bytes32",
          "name": "requestId",
          "type": "bytes32"
        },
        {
          "internalType": "uint256",
          "name": "randomness",
          "type": "uint256"
        }
      ],
      "name": "rawFulfillRandomness",
      "outputs": [],
      "stateMutability": "nonpayable",
      "type": "function"
    },
    {
      "inputs": [
        {
          "internalType": "bytes32",
          "name": "",
          "type": "bytes32"
        }
      ],
      "name": "temps",
      "outputs": [
        {
          "internalType": "bytes32",
          "name": "id",
          "type": "bytes32"
        },
        {
          "internalType": "uint256",
          "name": "result",
          "type": "uint256"
        },
        {
          "internalType": "address",
          "name": "playerAddress",
          "type": "address"
        }
      ],
      "stateMutability": "view",
      "type": "function",
      "constant": true
    },
    {
      "inputs": [
        {
          "internalType": "address",
          "name": "newOwner",
          "type": "address"
        }
      ],
      "name": "transferOwnership",
      "outputs": [],
      "stateMutability": "nonpayable",
      "type": "function"
    },
    {
      "inputs": [
        {
          "internalType": "uint256",
          "name": "_betChoice",
          "type": "uint256"
        }
      ],
      "name": "bet",
      "outputs": [],
      "stateMutability": "payable",
      "type": "function",
      "payable": true
    },
    {
      "inputs": [
        {
          "internalType": "uint256",
          "name": "_randomResult",
          "type": "uint256"
        },
        {
          "internalType": "bytes32",
          "name": "_requestId",
          "type": "bytes32"
        }
      ],
      "name": "checkResult",
      "outputs": [
        {
          "internalType": "bool",
          "name": "",
          "type": "bool"
        }
      ],
      "stateMutability": "nonpayable",
      "type": "function"
    },
    {
      "inputs": [],
      "name": "deposit",
      "outputs": [],
      "stateMutability": "payable",
      "type": "function",
      "payable": true
    },
    {
      "inputs": [],
      "name": "getPlayerBalance",
      "outputs": [
        {
          "internalType": "uint256",
          "name": "",
          "type": "uint256"
        }
      ],
      "stateMutability": "view",
      "type": "function",
      "constant": true
    },
    {
      "inputs": [],
      "name": "getContractBalance",
      "outputs": [
        {
          "internalType": "uint256",
          "name": "",
          "type": "uint256"
        }
      ],
      "stateMutability": "view",
      "type": "function",
      "constant": true
    },
    {
      "inputs": [],
      "name": "withdrawPlayerBalance",
      "outputs": [],
      "stateMutability": "nonpayable",
      "type": "function"
    },
    {
      "inputs": [],
      "name": "withdrawContractBalance",
      "outputs": [],
      "stateMutability": "nonpayable",
      "type": "function"
    }
  ],
  "bytecode": "0x60c060405273dd3782915140c8f3b190b5d67eac6dc5760c46e973a36085f69e2889c224210f603d836748e7dc0088336000806101000a81548173ffffffffffffffffffffffffffffffffffffffff021916908373ffffffffffffffffffffffffffffffffffffffff1602179055508173ffffffffffffffffffffffffffffffffffffffff1660a08173ffffffffffffffffffffffffffffffffffffffff1660601b815250508073ffffffffffffffffffffffffffffffffffffffff1660808173ffffffffffffffffffffffffffffffffffffffff1660601b8152505050506702c68af0bb14000080341015610140576040517f08c379a000000000000000000000000000000000000000000000000000000000815260040180806020018281038252603b815260200180611c71603b913960400191505060405180910390fd5b7f6c3699283bda56ad74f6b855546325b68d482e983852a7a82979cc4807b641f460001b60048190555067016345785d8a0000600581905550346002600082825401925050819055505060805160601c60a05160601c611ab46101bd600039806109ec5280611649525080611368528061160d5250611ab46000f3fe6080604052600436106100c25760003560e01c80638da5cb5b1161007f578063bfab3db911610059578063bfab3db9146103a9578063d0e30db0146103c0578063d325101a146103ca578063f2fde38b146103e1576100c2565b80638da5cb5b146102b057806394985ddd146103075780639520d8c31461034c576100c2565b80630b01517c146100c757806342619f66146100f25780636f9fb98a1461011d5780637365870b14610148578063772a9afc146101765780638c9b1aa614610227575b600080fd5b3480156100d357600080fd5b506100dc610432565b6040518082815260200191505060405180910390f35b3480156100fe57600080fd5b5061010761047c565b6040518082815260200191505060405180910390f35b34801561012957600080fd5b50610132610482565b6040518082815260200191505060405180910390f35b6101746004803603602081101561015e57600080fd5b810190808035906020019092919050505061048c565b005b34801561018257600080fd5b506101c56004803603602081101561019957600080fd5b81019080803573ffffffffffffffffffffffffffffffffffffffff169060200190929190505050610918565b604051808681526020018581526020018481526020018373ffffffffffffffffffffffffffffffffffffffff1673ffffffffffffffffffffffffffffffffffffffff168152602001821515151581526020019550505050505060405180910390f35b34801561023357600080fd5b506102606004803603602081101561024a57600080fd5b810190808035906020019092919050505061097b565b604051808481526020018381526020018273ffffffffffffffffffffffffffffffffffffffff1673ffffffffffffffffffffffffffffffffffffffff168152602001935050505060405180910390f35b3480156102bc57600080fd5b506102c56109c5565b604051808273ffffffffffffffffffffffffffffffffffffffff1673ffffffffffffffffffffffffffffffffffffffff16815260200191505060405180910390f35b34801561031357600080fd5b5061034a6004803603604081101561032a57600080fd5b8101908080359060200190929190803590602001909291905050506109ea565b005b34801561035857600080fd5b5061038f6004803603604081101561036f57600080fd5b810190808035906020019092919080359060200190929190505050610ab9565b604051808215151515815260200191505060405180910390f35b3480156103b557600080fd5b506103be610d7f565b005b6103c8610e30565b005b3480156103d657600080fd5b506103df610ec4565b005b3480156103ed57600080fd5b506104306004803603602081101561040457600080fd5b81019080803573ffffffffffffffffffffffffffffffffffffffff16906020019092919050505061123f565b005b6000600660003373ffffffffffffffffffffffffffffffffffffffff1673ffffffffffffffffffffffffffffffffffffffff16815260200190815260200160002060000154905090565b60035481565b6000600254905090565b66038d7ea4c680003410156104ec576040517f08c379a000000000000000000000000000000000000000000000000000000000815260040180806020018281038252602d815260200180611a27602d913960400191505060405180910390fd5b60026104f6610482565b816104fd57fe5b04341115610556576040517f08c379a00000000000000000000000000000000000000000000000000000000081526004018080602001828103825260348152602001806119f36034913960400191505060405180910390fd5b60001515600660003373ffffffffffffffffffffffffffffffffffffffff1673ffffffffffffffffffffffffffffffffffffffff16815260200190815260200160002060030160149054906101000a900460ff16151514610602576040517f08c379a000000000000000000000000000000000000000000000000000000000815260040180806020018281038252602b815260200180611a54602b913960400191505060405180910390fd5b60008114806106115750600181145b610683576040517f08c379a00000000000000000000000000000000000000000000000000000000081526004018080602001828103825260208152602001807f5468652063686f696365206d757374206265206569746865722030206f72203181525060200191505060405180910390fd5b60004443649eb98a12d20101905033600660003373ffffffffffffffffffffffffffffffffffffffff1673ffffffffffffffffffffffffffffffffffffffff16815260200190815260200160002060030160006101000a81548173ffffffffffffffffffffffffffffffffffffffff021916908373ffffffffffffffffffffffffffffffffffffffff16021790555081600660003373ffffffffffffffffffffffffffffffffffffffff1673ffffffffffffffffffffffffffffffffffffffff168152602001908152602001600020600201819055506001600660003373ffffffffffffffffffffffffffffffffffffffff1673ffffffffffffffffffffffffffffffffffffffff16815260200190815260200160002060030160146101000a81548160ff02191690831515021790555034600660003373ffffffffffffffffffffffffffffffffffffffff1673ffffffffffffffffffffffffffffffffffffffff16815260200190815260200160002060010181905550600660003373ffffffffffffffffffffffffffffffffffffffff1673ffffffffffffffffffffffffffffffffffffffff1681526020019081526020016000206001015460025401600281905550600061085382611361565b9050336007600083815260200190815260200160002060020160006101000a81548173ffffffffffffffffffffffffffffffffffffffff021916908373ffffffffffffffffffffffffffffffffffffffff1602179055508060076000838152602001908152602001600020600001819055503373ffffffffffffffffffffffffffffffffffffffff167f0d194974e9204ad8a74cad35a60066978caa60be7c3c90ffac79e001461118ee826040518082815260200191505060405180910390a2505050565b60066020528060005260406000206000915090508060000154908060010154908060020154908060030160009054906101000a900473ffffffffffffffffffffffffffffffffffffffff16908060030160149054906101000a900460ff16905085565b60076020528060005260406000206000915090508060000154908060010154908060020160009054906101000a900473ffffffffffffffffffffffffffffffffffffffff16905083565b6000809054906101000a900473ffffffffffffffffffffffffffffffffffffffff1681565b7f000000000000000000000000000000000000000000000000000000000000000073ffffffffffffffffffffffffffffffffffffffff163373ffffffffffffffffffffffffffffffffffffffff1614610aab576040517f08c379a000000000000000000000000000000000000000000000000000000000815260040180806020018281038252601f8152602001807f4f6e6c7920565246436f6f7264696e61746f722063616e2066756c66696c6c0081525060200191505060405180910390fd5b610ab582826114aa565b5050565b6000806007600084815260200190815260200160002060020160009054906101000a900473ffffffffffffffffffffffffffffffffffffffff1690506000809050600085600660008573ffffffffffffffffffffffffffffffffffffffff1673ffffffffffffffffffffffffffffffffffffffff168152602001908152602001600020600201541415610c2957600191506002600660008573ffffffffffffffffffffffffffffffffffffffff1673ffffffffffffffffffffffffffffffffffffffff1681526020019081526020016000206001015402905080600660008573ffffffffffffffffffffffffffffffffffffffff1673ffffffffffffffffffffffffffffffffffffffff1681526020019081526020016000206000015401600660008573ffffffffffffffffffffffffffffffffffffffff1673ffffffffffffffffffffffffffffffffffffffff1681526020019081526020016000206000018190555080600254036002819055505b8273ffffffffffffffffffffffffffffffffffffffff167f883f4d0c1f1f46295aca1500eb9887530d302925a814aa0a107fc8ca8b77971d838360405180831515151581526020018281526020019250505060405180910390a26000600660008573ffffffffffffffffffffffffffffffffffffffff1673ffffffffffffffffffffffffffffffffffffffff168152602001908152602001600020600101819055506000600660008573ffffffffffffffffffffffffffffffffffffffff1673ffffffffffffffffffffffffffffffffffffffff16815260200190815260200160002060030160146101000a81548160ff0219169083151502179055506007600086815260200190815260200160002060008082016000905560018201600090556002820160006101000a81549073ffffffffffffffffffffffffffffffffffffffff0219169055505081935050505092915050565b6000809054906101000a900473ffffffffffffffffffffffffffffffffffffffff1673ffffffffffffffffffffffffffffffffffffffff163373ffffffffffffffffffffffffffffffffffffffff1614610e24576040517f08c379a000000000000000000000000000000000000000000000000000000000815260040180806020018281038252602e815260200180611953602e913960400191505060405180910390fd5b610e2d3361152a565b50565b60003411610e3d57600080fd5b346002600082825401925050819055507f719a678c6170368d3e08a7171825b667d9f9b32520826d4fab3af939fef66e423334600254604051808473ffffffffffffffffffffffffffffffffffffffff1673ffffffffffffffffffffffffffffffffffffffff168152602001838152602001828152602001935050505060405180910390a1565b600073ffffffffffffffffffffffffffffffffffffffff163373ffffffffffffffffffffffffffffffffffffffff161415610f67576040517f08c379a000000000000000000000000000000000000000000000000000000000815260040180806020018281038252601b8152602001807f54686973206164647265737320646f65736e27742065786973742e000000000081525060200191505060405180910390fd5b6000600660003373ffffffffffffffffffffffffffffffffffffffff1673ffffffffffffffffffffffffffffffffffffffff1681526020019081526020016000206000015411611002576040517f08c379a00000000000000000000000000000000000000000000000000000000081526004018080602001828103825260248152602001806119ac6024913960400191505060405180910390fd5b60001515600660003373ffffffffffffffffffffffffffffffffffffffff1673ffffffffffffffffffffffffffffffffffffffff16815260200190815260200160002060030160149054906101000a900460ff161515146110ae576040517f08c379a00000000000000000000000000000000000000000000000000000000081526004018080602001828103825260238152602001806119d06023913960400191505060405180910390fd5b6000600660003373ffffffffffffffffffffffffffffffffffffffff1673ffffffffffffffffffffffffffffffffffffffff1681526020019081526020016000206000015490503373ffffffffffffffffffffffffffffffffffffffff166108fc829081150290604051600060405180830381858888f1935050505015801561113b573d6000803e3d6000fd5b50600660003373ffffffffffffffffffffffffffffffffffffffff1673ffffffffffffffffffffffffffffffffffffffff168152602001908152602001600020600080820160009055600182016000905560028201600090556003820160006101000a81549073ffffffffffffffffffffffffffffffffffffffff02191690556003820160146101000a81549060ff021916905550507f7fcf532c15f0a6db0bd6d0e038bea71d30d808c7d98cb3bf7268a95bf5081b653382604051808373ffffffffffffffffffffffffffffffffffffffff1673ffffffffffffffffffffffffffffffffffffffff1681526020018281526020019250505060405180910390a150565b6000809054906101000a900473ffffffffffffffffffffffffffffffffffffffff1673ffffffffffffffffffffffffffffffffffffffff163373ffffffffffffffffffffffffffffffffffffffff16146112e4576040517f08c379a000000000000000000000000000000000000000000000000000000000815260040180806020018281038252602e815260200180611953602e913960400191505060405180910390fd5b600073ffffffffffffffffffffffffffffffffffffffff168173ffffffffffffffffffffffffffffffffffffffff16141561131e57600080fd5b806000806101000a81548173ffffffffffffffffffffffffffffffffffffffff021916908373ffffffffffffffffffffffffffffffffffffffff16021790555050565b60006005547f000000000000000000000000000000000000000000000000000000000000000073ffffffffffffffffffffffffffffffffffffffff166370a08231306040518263ffffffff1660e01b8152600401808273ffffffffffffffffffffffffffffffffffffffff1673ffffffffffffffffffffffffffffffffffffffff16815260200191505060206040518083038186803b15801561140357600080fd5b505afa158015611417573d6000803e3d6000fd5b505050506040513d602081101561142d57600080fd5b81019080805190602001909291905050501015611495576040517f08c379a000000000000000000000000000000000000000000000000000000000815260040180806020018281038252602b815260200180611981602b913960400191505060405180910390fd5b6114a3600454600554611609565b9050919050565b600281816114b457fe5b0660038190555060035460076000848152602001908152602001600020600101819055506114e460035483610ab9565b507f5d310041bf22ca618e074273e17061803e0052e553f64472ef0134b5575eb71d82600354604051808381526020018281526020019250505060405180910390a15050565b60008060025414156115a4576040517f08c379a00000000000000000000000000000000000000000000000000000000081526004018080602001828103825260148152602001807f4e6f2066756e647320746f20776974686472617700000000000000000000000081525060200191505060405180910390fd5b6000479050806002600082825403925050819055508273ffffffffffffffffffffffffffffffffffffffff166108fc829081150290604051600060405180830381858888f193505050501580156115ff573d6000803e3d6000fd5b5080915050919050565b60007f000000000000000000000000000000000000000000000000000000000000000073ffffffffffffffffffffffffffffffffffffffff16634000aea07f00000000000000000000000000000000000000000000000000000000000000008486600060405160200180838152602001828152602001925050506040516020818303038152906040526040518463ffffffff1660e01b8152600401808473ffffffffffffffffffffffffffffffffffffffff1673ffffffffffffffffffffffffffffffffffffffff16815260200183815260200180602001828103825283818151815260200191508051906020019080838360005b838110156117195780820151818401526020810190506116fe565b50505050905090810190601f1680156117465780820380516001836020036101000a031916815260200191505b50945050505050602060405180830381600087803b15801561176757600080fd5b505af115801561177b573d6000803e3d6000fd5b505050506040513d602081101561179157600080fd5b81019080805190602001909291905050505060006117c5846000306001600089815260200190815260200160002054611817565b90506117ed60018060008781526020019081526020016000205461189190919063ffffffff16565b600160008681526020019081526020016000208190555061180e8482611919565b91505092915050565b600084848484604051602001808581526020018481526020018373ffffffffffffffffffffffffffffffffffffffff1673ffffffffffffffffffffffffffffffffffffffff1681526020018281526020019450505050506040516020818303038152906040528051906020012060001c9050949350505050565b60008082840190508381101561190f576040517f08c379a000000000000000000000000000000000000000000000000000000000815260040180806020018281038252601b8152602001807f536166654d6174683a206164646974696f6e206f766572666c6f77000000000081525060200191505060405180910390fd5b8091505092915050565b6000828260405160200180838152602001828152602001925050506040516020818303038152906040528051906020012090509291505056fe596f7520617265206e6f7420656e7469746c656420746f206578656375746520746869732066756e6374696f6e2e4e6f7420656e6f756768204c494e4b202d2066696c6c20636f6e7472616374207769746820666175636574596f7520646f6e2774206861766520616e792066756e6420746f2077697468647261772e746869732061646472657373207374696c6c2068617320616e206f70656e206265742e596f752063616e277420626574206d6f7265207468616e2068616c662074686520636f6e747261637427732062616c616e636521496e737566666973616e7420616d6f756e742c20706c6561736520696e63726561736520796f75722062657421412062657420697320616c7265616479206f6e676f696e672077697468207468697320616464726573732ea2646970667358221220d97daab5dabe14cc2c3368f5766a7a8513f04077db7d212283266358b39ab13e64736f6c63430006060033436f6e7472616374206e6565647320736f6d652045544820746f20696e697469616c697a652074686520636f6e74726163742062616c616e63652e",
  "immutableReferences": {
    "76": [
      {
        "length": 32,
        "start": 4968
      },
      {
        "length": 32,
        "start": 5645
      }
    ],
    "78": [
      {
        "length": 32,
        "start": 2540
      },
      {
        "length": 32,
        "start": 5705
      }
    ]
  },
  "source": "// SPDX-License-Identifier: MIT\npragma solidity 0.6.6;\n\nimport \"./Ownable.sol\";\nimport \"@chainlink/contracts/src/v0.6/VRFConsumerBase.sol\";\n\n\ncontract CoinFlip is Ownable, VRFConsumerBase {\n\n\n/* *** Storage ***\n===================*/\n\n    uint256 private contractBalance;\n    uint256 public randomResult;\n    bytes32 internal keyHash;  //For Chailink oracle\n    uint256 internal fee;      //For Chailink oracle\n\n    struct Temp {\n        bytes32 id;\n        uint256 result;\n        address playerAddress;\n    }\n\n    struct PlayerByAddress {\n        uint256 balance;\n        uint256 betAmount;\n        uint256 betChoice;\n        address playerAddress;\n        bool betOngoing;\n    }\n\n    mapping(address => PlayerByAddress) public playersByAddress; //to check who is the player\n    mapping(bytes32 => Temp) public temps; //to check who is the sender of a pending bet\n\n\n/* *** Events ***\n==================*/\n\n    event DepositToContract(address user, uint256 depositAmount, uint256 newBalance);\n    event Withdrawal(address player, uint256 amount);\n    event NewIdRequest(address indexed player, bytes32 requestId);\n    event GeneratedRandomNumber(bytes32 requestId, uint256 randomNumber);\n    event BetResult(address indexed player, bool victory, uint256 amount);\n\n\n/* *** Constructor ***\n=======================*/\n\n    constructor() payable public initCosts(0.2 ether)\n        VRFConsumerBase(\n            0xdD3782915140c8f3b190B5D67eAc6dc5760C46E9, // VRF Coordinator\n            0xa36085F69e2889c224210F603D836748e7dC0088  // LINK Token\n        )\n    {\n        keyHash = 0x6c3699283bda56ad74f6b855546325b68d482e983852a7a82979cc4807b641f4;\n        fee = 0.1 * 10 ** 18;\n        contractBalance += msg.value;\n    }\n\n\n/* *** Modifiers ***\n=====================*/\n\n    modifier initCosts(uint initCost){\n        require(msg.value >= initCost, \"Contract needs some ETH to initialize the contract balance.\");\n        _;\n    }\n    \n    modifier betConditions {\n        require(msg.value >= 0.001 ether, \"Insuffisant amount, please increase your bet!\");\n        require(msg.value <= getContractBalance()/2, \"You can't bet more than half the contract's balance!\");\n        require(playersByAddress[msg.sender].betOngoing == false, \"A bet is already ongoing with this address.\");\n        _;\n    }\n\n\n/* *** Functions ***\n=====================*/\n\n    function bet(uint256 _betChoice) payable public betConditions {\n        require(_betChoice == 0 || _betChoice == 1, \"The choice must be either 0 or 1\");\n\n        uint256 seed = (681717666514 + block.number + block.difficulty);\n        playersByAddress[msg.sender].playerAddress = msg.sender;\n        playersByAddress[msg.sender].betChoice = _betChoice;\n        playersByAddress[msg.sender].betOngoing = true;\n        playersByAddress[msg.sender].betAmount = msg.value;\n        contractBalance = contractBalance + playersByAddress[msg.sender].betAmount;\n        \n        bytes32 newRequestId = getRandomNumber(seed);\n        temps[newRequestId].playerAddress = msg.sender;\n        temps[newRequestId].id = newRequestId;\n\n        emit NewIdRequest(msg.sender, newRequestId);\n    }\n\n\n    function getRandomNumber(uint256 userProvidedSeed) internal returns (bytes32 requestId) {\n        require(LINK.balanceOf(address(this)) >= fee, \"Not enough LINK - fill contract with faucet\");\n        \n        return requestRandomness(keyHash, fee);\n    }\n    \n\n    function fulfillRandomness(bytes32 requestId, uint256 randomness) internal override {\n        randomResult = randomness%2;\n        temps[requestId].result = randomResult;\n           \n        checkResult(randomResult, requestId);\n\n        emit GeneratedRandomNumber(requestId, randomResult);\n    }\n\n\n    function checkResult(uint256 _randomResult, bytes32 _requestId) public returns (bool) {\n        address player = temps[_requestId].playerAddress;\n        bool win = false;\n        uint256 amountWon;\n\n        if(playersByAddress[player].betChoice == _randomResult) {\n            win = true;\n            amountWon = playersByAddress[player].betAmount*2;\n            playersByAddress[player].balance = playersByAddress[player].balance + amountWon;\n            contractBalance = contractBalance - amountWon;\n        }\n\n        emit BetResult(player, win, amountWon);\n\n        playersByAddress[player].betAmount = 0;\n        playersByAddress[player].betOngoing = false;\n\n        delete(temps[_requestId]);\n        return win;\n    }\n\n\n    function deposit() public payable {\n        require(msg.value > 0);\n\n        contractBalance += msg.value;\n\n        emit DepositToContract(msg.sender, msg.value, contractBalance);\n    }\n\n\n    function getPlayerBalance() public view returns (uint256) {\n        return playersByAddress[msg.sender].balance;\n    }\n\n\n    function getContractBalance() public view returns (uint256) {\n        return contractBalance;\n    }\n\n\n    function withdrawPlayerBalance() public {\n        require(msg.sender != address(0), \"This address doesn't exist.\");\n        require(playersByAddress[msg.sender].balance > 0, \"You don't have any fund to withdraw.\");\n        require(playersByAddress[msg.sender].betOngoing == false, \"this address still has an open bet.\");\n\n        uint256 amount = playersByAddress[msg.sender].balance;\n        msg.sender.transfer(amount);\n        delete (playersByAddress[msg.sender]);\n\n        emit Withdrawal(msg.sender, amount);\n    }\n\n\n    function withdrawContractBalance() public onlyOwner {\n        payout(msg.sender);\n    }\n\n    function payout(address payable to) internal returns (uint256) {\n        require(contractBalance != 0, \"No funds to withdraw\");\n\n        uint256 toTransfer = address(this).balance;\n        contractBalance -= toTransfer;\n        to.transfer(toTransfer);\n        return toTransfer;\n    }\n}",
  "sourcePath": "E:\\rgs\\git download project\\CoinFlip_2.0-main\\CoinFlip_2.0-main\\blockchain\\contracts\\CoinFlip.sol",
  "compiler": {
    "name": "solc",
    "version": "0.6.6+commit.6c089d02.Emscripten.clang"
  },
  "schemaVersion": "3.4.5",
  "updatedAt": "2022-03-03T08:40:12.981Z",
  "networkType": "ethereum",
  "devdoc": {
    "methods": {}
  },
  "userdoc": {
    "methods": {}
  }
}